{
	"CSF362/AgeCalculator.sol": {
		"AgeCalculator": {
			"abi": [
				{
					"inputs": [
						{
							"internalType": "uint256",
							"name": "currentAge",
							"type": "uint256"
						},
						{
							"internalType": "uint256",
							"name": "yearsToAdd",
							"type": "uint256"
						}
					],
					"name": "calculateAgeAfterYears",
					"outputs": [
						{
							"internalType": "uint256",
							"name": "",
							"type": "uint256"
						}
					],
					"stateMutability": "pure",
					"type": "function"
				},
				{
					"inputs": [
						{
							"internalType": "uint256",
							"name": "currentAge",
							"type": "uint256"
						},
						{
							"internalType": "uint256",
							"name": "yearsToSubtract",
							"type": "uint256"
						}
					],
					"name": "calculateAgeBeforeYears",
					"outputs": [
						{
							"internalType": "uint256",
							"name": "",
							"type": "uint256"
						}
					],
					"stateMutability": "pure",
					"type": "function"
				}
			],
			"devdoc": {
				"kind": "dev",
				"methods": {},
				"version": 1
			},
			"evm": {
				"assembly": "    /* \"CSF362/AgeCalculator.sol\":60:523  contract AgeCalculator {... */\n  mstore(0x40, 0x80)\n  callvalue\n  dup1\n  iszero\n  tag_1\n  jumpi\n  0x00\n  dup1\n  revert\ntag_1:\n  pop\n  dataSize(sub_0)\n  dup1\n  dataOffset(sub_0)\n  0x00\n  codecopy\n  0x00\n  return\nstop\n\nsub_0: assembly {\n        /* \"CSF362/AgeCalculator.sol\":60:523  contract AgeCalculator {... */\n      mstore(0x40, 0x80)\n      callvalue\n      dup1\n      iszero\n      tag_1\n      jumpi\n      0x00\n      dup1\n      revert\n    tag_1:\n      pop\n      jumpi(tag_2, lt(calldatasize, 0x04))\n      shr(0xe0, calldataload(0x00))\n      dup1\n      0xab984346\n      eq\n      tag_3\n      jumpi\n      dup1\n      0xfd7b1bf5\n      eq\n      tag_4\n      jumpi\n    tag_2:\n      0x00\n      dup1\n      revert\n        /* \"CSF362/AgeCalculator.sol\":90:293  function calculateAgeAfterYears(uint currentAge, uint yearsToAdd) public pure returns (uint) {... */\n    tag_3:\n      tag_5\n      0x04\n      dup1\n      calldatasize\n      sub\n      dup2\n      add\n      swap1\n      tag_6\n      swap2\n      swap1\n      tag_7\n      jump\t// in\n    tag_6:\n      tag_8\n      jump\t// in\n    tag_5:\n      mload(0x40)\n      tag_9\n      swap2\n      swap1\n      tag_10\n      jump\t// in\n    tag_9:\n      mload(0x40)\n      dup1\n      swap2\n      sub\n      swap1\n      return\n        /* \"CSF362/AgeCalculator.sol\":301:520  function calculateAgeBeforeYears(uint currentAge, uint yearsToSubtract) public pure returns (uint) {... */\n    tag_4:\n      tag_11\n      0x04\n      dup1\n      calldatasize\n      sub\n      dup2\n      add\n      swap1\n      tag_12\n      swap2\n      swap1\n      tag_7\n      jump\t// in\n    tag_12:\n      tag_13\n      jump\t// in\n    tag_11:\n      mload(0x40)\n      tag_14\n      swap2\n      swap1\n      tag_10\n      jump\t// in\n    tag_14:\n      mload(0x40)\n      dup1\n      swap2\n      sub\n      swap1\n      return\n        /* \"CSF362/AgeCalculator.sol\":90:293  function calculateAgeAfterYears(uint currentAge, uint yearsToAdd) public pure returns (uint) {... */\n    tag_8:\n        /* \"CSF362/AgeCalculator.sol\":177:181  uint */\n      0x00\n        /* \"CSF362/AgeCalculator.sol\":216:226  yearsToAdd */\n      dup2\n        /* \"CSF362/AgeCalculator.sol\":202:212  currentAge */\n      dup4\n        /* \"CSF362/AgeCalculator.sol\":202:226  currentAge >= yearsToAdd */\n      lt\n      iszero\n        /* \"CSF362/AgeCalculator.sol\":194:244  require(currentAge >= yearsToAdd, \"Invalid input\") */\n      tag_16\n      jumpi\n      mload(0x40)\n      0x08c379a000000000000000000000000000000000000000000000000000000000\n      dup2\n      mstore\n      0x04\n      add\n      tag_17\n      swap1\n      tag_18\n      jump\t// in\n    tag_17:\n      mload(0x40)\n      dup1\n      swap2\n      sub\n      swap1\n      revert\n    tag_16:\n        /* \"CSF362/AgeCalculator.sol\":275:285  yearsToAdd */\n      dup2\n        /* \"CSF362/AgeCalculator.sol\":262:272  currentAge */\n      dup4\n        /* \"CSF362/AgeCalculator.sol\":262:285  currentAge + yearsToAdd */\n      tag_19\n      swap2\n      swap1\n      tag_20\n      jump\t// in\n    tag_19:\n        /* \"CSF362/AgeCalculator.sol\":255:285  return currentAge + yearsToAdd */\n      swap1\n      pop\n        /* \"CSF362/AgeCalculator.sol\":90:293  function calculateAgeAfterYears(uint currentAge, uint yearsToAdd) public pure returns (uint) {... */\n      swap3\n      swap2\n      pop\n      pop\n      jump\t// out\n        /* \"CSF362/AgeCalculator.sol\":301:520  function calculateAgeBeforeYears(uint currentAge, uint yearsToSubtract) public pure returns (uint) {... */\n    tag_13:\n        /* \"CSF362/AgeCalculator.sol\":394:398  uint */\n      0x00\n        /* \"CSF362/AgeCalculator.sol\":433:448  yearsToSubtract */\n      dup2\n        /* \"CSF362/AgeCalculator.sol\":419:429  currentAge */\n      dup4\n        /* \"CSF362/AgeCalculator.sol\":419:448  currentAge >= yearsToSubtract */\n      lt\n      iszero\n        /* \"CSF362/AgeCalculator.sol\":411:466  require(currentAge >= yearsToSubtract, \"Invalid input\") */\n      tag_22\n      jumpi\n      mload(0x40)\n      0x08c379a000000000000000000000000000000000000000000000000000000000\n      dup2\n      mstore\n      0x04\n      add\n      tag_23\n      swap1\n      tag_18\n      jump\t// in\n    tag_23:\n      mload(0x40)\n      dup1\n      swap2\n      sub\n      swap1\n      revert\n    tag_22:\n        /* \"CSF362/AgeCalculator.sol\":497:512  yearsToSubtract */\n      dup2\n        /* \"CSF362/AgeCalculator.sol\":484:494  currentAge */\n      dup4\n        /* \"CSF362/AgeCalculator.sol\":484:512  currentAge - yearsToSubtract */\n      tag_24\n      swap2\n      swap1\n      tag_25\n      jump\t// in\n    tag_24:\n        /* \"CSF362/AgeCalculator.sol\":477:512  return currentAge - yearsToSubtract */\n      swap1\n      pop\n        /* \"CSF362/AgeCalculator.sol\":301:520  function calculateAgeBeforeYears(uint currentAge, uint yearsToSubtract) public pure returns (uint) {... */\n      swap3\n      swap2\n      pop\n      pop\n      jump\t// out\n        /* \"#utility.yul\":88:205   */\n    tag_27:\n        /* \"#utility.yul\":197:198   */\n      0x00\n        /* \"#utility.yul\":194:195   */\n      dup1\n        /* \"#utility.yul\":187:199   */\n      revert\n        /* \"#utility.yul\":334:411   */\n    tag_29:\n        /* \"#utility.yul\":371:378   */\n      0x00\n        /* \"#utility.yul\":400:405   */\n      dup2\n        /* \"#utility.yul\":389:405   */\n      swap1\n      pop\n        /* \"#utility.yul\":334:411   */\n      swap2\n      swap1\n      pop\n      jump\t// out\n        /* \"#utility.yul\":417:539   */\n    tag_30:\n        /* \"#utility.yul\":490:514   */\n      tag_43\n        /* \"#utility.yul\":508:513   */\n      dup2\n        /* \"#utility.yul\":490:514   */\n      tag_29\n      jump\t// in\n    tag_43:\n        /* \"#utility.yul\":483:488   */\n      dup2\n        /* \"#utility.yul\":480:515   */\n      eq\n        /* \"#utility.yul\":470:533   */\n      tag_44\n      jumpi\n        /* \"#utility.yul\":529:530   */\n      0x00\n        /* \"#utility.yul\":526:527   */\n      dup1\n        /* \"#utility.yul\":519:531   */\n      revert\n        /* \"#utility.yul\":470:533   */\n    tag_44:\n        /* \"#utility.yul\":417:539   */\n      pop\n      jump\t// out\n        /* \"#utility.yul\":545:684   */\n    tag_31:\n        /* \"#utility.yul\":591:596   */\n      0x00\n        /* \"#utility.yul\":629:635   */\n      dup2\n        /* \"#utility.yul\":616:636   */\n      calldataload\n        /* \"#utility.yul\":607:636   */\n      swap1\n      pop\n        /* \"#utility.yul\":645:678   */\n      tag_46\n        /* \"#utility.yul\":672:677   */\n      dup2\n        /* \"#utility.yul\":645:678   */\n      tag_30\n      jump\t// in\n    tag_46:\n        /* \"#utility.yul\":545:684   */\n      swap3\n      swap2\n      pop\n      pop\n      jump\t// out\n        /* \"#utility.yul\":690:1164   */\n    tag_7:\n        /* \"#utility.yul\":758:764   */\n      0x00\n        /* \"#utility.yul\":766:772   */\n      dup1\n        /* \"#utility.yul\":815:817   */\n      0x40\n        /* \"#utility.yul\":803:812   */\n      dup4\n        /* \"#utility.yul\":794:801   */\n      dup6\n        /* \"#utility.yul\":790:813   */\n      sub\n        /* \"#utility.yul\":786:818   */\n      slt\n        /* \"#utility.yul\":783:902   */\n      iszero\n      tag_48\n      jumpi\n        /* \"#utility.yul\":821:900   */\n      tag_49\n      tag_27\n      jump\t// in\n    tag_49:\n        /* \"#utility.yul\":783:902   */\n    tag_48:\n        /* \"#utility.yul\":941:942   */\n      0x00\n        /* \"#utility.yul\":966:1019   */\n      tag_50\n        /* \"#utility.yul\":1011:1018   */\n      dup6\n        /* \"#utility.yul\":1002:1008   */\n      dup3\n        /* \"#utility.yul\":991:1000   */\n      dup7\n        /* \"#utility.yul\":987:1009   */\n      add\n        /* \"#utility.yul\":966:1019   */\n      tag_31\n      jump\t// in\n    tag_50:\n        /* \"#utility.yul\":956:1019   */\n      swap3\n      pop\n        /* \"#utility.yul\":912:1029   */\n      pop\n        /* \"#utility.yul\":1068:1070   */\n      0x20\n        /* \"#utility.yul\":1094:1147   */\n      tag_51\n        /* \"#utility.yul\":1139:1146   */\n      dup6\n        /* \"#utility.yul\":1130:1136   */\n      dup3\n        /* \"#utility.yul\":1119:1128   */\n      dup7\n        /* \"#utility.yul\":1115:1137   */\n      add\n        /* \"#utility.yul\":1094:1147   */\n      tag_31\n      jump\t// in\n    tag_51:\n        /* \"#utility.yul\":1084:1147   */\n      swap2\n      pop\n        /* \"#utility.yul\":1039:1157   */\n      pop\n        /* \"#utility.yul\":690:1164   */\n      swap3\n      pop\n      swap3\n      swap1\n      pop\n      jump\t// out\n        /* \"#utility.yul\":1170:1288   */\n    tag_32:\n        /* \"#utility.yul\":1257:1281   */\n      tag_53\n        /* \"#utility.yul\":1275:1280   */\n      dup2\n        /* \"#utility.yul\":1257:1281   */\n      tag_29\n      jump\t// in\n    tag_53:\n        /* \"#utility.yul\":1252:1255   */\n      dup3\n        /* \"#utility.yul\":1245:1282   */\n      mstore\n        /* \"#utility.yul\":1170:1288   */\n      pop\n      pop\n      jump\t// out\n        /* \"#utility.yul\":1294:1516   */\n    tag_10:\n        /* \"#utility.yul\":1387:1391   */\n      0x00\n        /* \"#utility.yul\":1425:1427   */\n      0x20\n        /* \"#utility.yul\":1414:1423   */\n      dup3\n        /* \"#utility.yul\":1410:1428   */\n      add\n        /* \"#utility.yul\":1402:1428   */\n      swap1\n      pop\n        /* \"#utility.yul\":1438:1509   */\n      tag_55\n        /* \"#utility.yul\":1506:1507   */\n      0x00\n        /* \"#utility.yul\":1495:1504   */\n      dup4\n        /* \"#utility.yul\":1491:1508   */\n      add\n        /* \"#utility.yul\":1482:1488   */\n      dup5\n        /* \"#utility.yul\":1438:1509   */\n      tag_32\n      jump\t// in\n    tag_55:\n        /* \"#utility.yul\":1294:1516   */\n      swap3\n      swap2\n      pop\n      pop\n      jump\t// out\n        /* \"#utility.yul\":1522:1691   */\n    tag_33:\n        /* \"#utility.yul\":1606:1617   */\n      0x00\n        /* \"#utility.yul\":1640:1646   */\n      dup3\n        /* \"#utility.yul\":1635:1638   */\n      dup3\n        /* \"#utility.yul\":1628:1647   */\n      mstore\n        /* \"#utility.yul\":1680:1684   */\n      0x20\n        /* \"#utility.yul\":1675:1678   */\n      dup3\n        /* \"#utility.yul\":1671:1685   */\n      add\n        /* \"#utility.yul\":1656:1685   */\n      swap1\n      pop\n        /* \"#utility.yul\":1522:1691   */\n      swap3\n      swap2\n      pop\n      pop\n      jump\t// out\n        /* \"#utility.yul\":1697:1860   */\n    tag_34:\n        /* \"#utility.yul\":1837:1852   */\n      0x496e76616c696420696e70757400000000000000000000000000000000000000\n        /* \"#utility.yul\":1833:1834   */\n      0x00\n        /* \"#utility.yul\":1825:1831   */\n      dup3\n        /* \"#utility.yul\":1821:1835   */\n      add\n        /* \"#utility.yul\":1814:1853   */\n      mstore\n        /* \"#utility.yul\":1697:1860   */\n      pop\n      jump\t// out\n        /* \"#utility.yul\":1866:2232   */\n    tag_35:\n        /* \"#utility.yul\":2008:2011   */\n      0x00\n        /* \"#utility.yul\":2029:2096   */\n      tag_59\n        /* \"#utility.yul\":2093:2095   */\n      0x0d\n        /* \"#utility.yul\":2088:2091   */\n      dup4\n        /* \"#utility.yul\":2029:2096   */\n      tag_33\n      jump\t// in\n    tag_59:\n        /* \"#utility.yul\":2022:2096   */\n      swap2\n      pop\n        /* \"#utility.yul\":2105:2198   */\n      tag_60\n        /* \"#utility.yul\":2194:2197   */\n      dup3\n        /* \"#utility.yul\":2105:2198   */\n      tag_34\n      jump\t// in\n    tag_60:\n        /* \"#utility.yul\":2223:2225   */\n      0x20\n        /* \"#utility.yul\":2218:2221   */\n      dup3\n        /* \"#utility.yul\":2214:2226   */\n      add\n        /* \"#utility.yul\":2207:2226   */\n      swap1\n      pop\n        /* \"#utility.yul\":1866:2232   */\n      swap2\n      swap1\n      pop\n      jump\t// out\n        /* \"#utility.yul\":2238:2657   */\n    tag_18:\n        /* \"#utility.yul\":2404:2408   */\n      0x00\n        /* \"#utility.yul\":2442:2444   */\n      0x20\n        /* \"#utility.yul\":2431:2440   */\n      dup3\n        /* \"#utility.yul\":2427:2445   */\n      add\n        /* \"#utility.yul\":2419:2445   */\n      swap1\n      pop\n        /* \"#utility.yul\":2491:2500   */\n      dup2\n        /* \"#utility.yul\":2485:2489   */\n      dup2\n        /* \"#utility.yul\":2481:2501   */\n      sub\n        /* \"#utility.yul\":2477:2478   */\n      0x00\n        /* \"#utility.yul\":2466:2475   */\n      dup4\n        /* \"#utility.yul\":2462:2479   */\n      add\n        /* \"#utility.yul\":2455:2502   */\n      mstore\n        /* \"#utility.yul\":2519:2650   */\n      tag_62\n        /* \"#utility.yul\":2645:2649   */\n      dup2\n        /* \"#utility.yul\":2519:2650   */\n      tag_35\n      jump\t// in\n    tag_62:\n        /* \"#utility.yul\":2511:2650   */\n      swap1\n      pop\n        /* \"#utility.yul\":2238:2657   */\n      swap2\n      swap1\n      pop\n      jump\t// out\n        /* \"#utility.yul\":2663:2843   */\n    tag_36:\n        /* \"#utility.yul\":2711:2788   */\n      0x4e487b7100000000000000000000000000000000000000000000000000000000\n        /* \"#utility.yul\":2708:2709   */\n      0x00\n        /* \"#utility.yul\":2701:2789   */\n      mstore\n        /* \"#utility.yul\":2808:2812   */\n      0x11\n        /* \"#utility.yul\":2805:2806   */\n      0x04\n        /* \"#utility.yul\":2798:2813   */\n      mstore\n        /* \"#utility.yul\":2832:2836   */\n      0x24\n        /* \"#utility.yul\":2829:2830   */\n      0x00\n        /* \"#utility.yul\":2822:2837   */\n      revert\n        /* \"#utility.yul\":2849:3040   */\n    tag_20:\n        /* \"#utility.yul\":2889:2892   */\n      0x00\n        /* \"#utility.yul\":2908:2928   */\n      tag_65\n        /* \"#utility.yul\":2926:2927   */\n      dup3\n        /* \"#utility.yul\":2908:2928   */\n      tag_29\n      jump\t// in\n    tag_65:\n        /* \"#utility.yul\":2903:2928   */\n      swap2\n      pop\n        /* \"#utility.yul\":2942:2962   */\n      tag_66\n        /* \"#utility.yul\":2960:2961   */\n      dup4\n        /* \"#utility.yul\":2942:2962   */\n      tag_29\n      jump\t// in\n    tag_66:\n        /* \"#utility.yul\":2937:2962   */\n      swap3\n      pop\n        /* \"#utility.yul\":2985:2986   */\n      dup3\n        /* \"#utility.yul\":2982:2983   */\n      dup3\n        /* \"#utility.yul\":2978:2987   */\n      add\n        /* \"#utility.yul\":2971:2987   */\n      swap1\n      pop\n        /* \"#utility.yul\":3006:3009   */\n      dup1\n        /* \"#utility.yul\":3003:3004   */\n      dup3\n        /* \"#utility.yul\":3000:3010   */\n      gt\n        /* \"#utility.yul\":2997:3033   */\n      iszero\n      tag_67\n      jumpi\n        /* \"#utility.yul\":3013:3031   */\n      tag_68\n      tag_36\n      jump\t// in\n    tag_68:\n        /* \"#utility.yul\":2997:3033   */\n    tag_67:\n        /* \"#utility.yul\":2849:3040   */\n      swap3\n      swap2\n      pop\n      pop\n      jump\t// out\n        /* \"#utility.yul\":3046:3240   */\n    tag_25:\n        /* \"#utility.yul\":3086:3090   */\n      0x00\n        /* \"#utility.yul\":3106:3126   */\n      tag_70\n        /* \"#utility.yul\":3124:3125   */\n      dup3\n        /* \"#utility.yul\":3106:3126   */\n      tag_29\n      jump\t// in\n    tag_70:\n        /* \"#utility.yul\":3101:3126   */\n      swap2\n      pop\n        /* \"#utility.yul\":3140:3160   */\n      tag_71\n        /* \"#utility.yul\":3158:3159   */\n      dup4\n        /* \"#utility.yul\":3140:3160   */\n      tag_29\n      jump\t// in\n    tag_71:\n        /* \"#utility.yul\":3135:3160   */\n      swap3\n      pop\n        /* \"#utility.yul\":3184:3185   */\n      dup3\n        /* \"#utility.yul\":3181:3182   */\n      dup3\n        /* \"#utility.yul\":3177:3186   */\n      sub\n        /* \"#utility.yul\":3169:3186   */\n      swap1\n      pop\n        /* \"#utility.yul\":3208:3209   */\n      dup2\n        /* \"#utility.yul\":3202:3206   */\n      dup2\n        /* \"#utility.yul\":3199:3210   */\n      gt\n        /* \"#utility.yul\":3196:3233   */\n      iszero\n      tag_72\n      jumpi\n        /* \"#utility.yul\":3213:3231   */\n      tag_73\n      tag_36\n      jump\t// in\n    tag_73:\n        /* \"#utility.yul\":3196:3233   */\n    tag_72:\n        /* \"#utility.yul\":3046:3240   */\n      swap3\n      swap2\n      pop\n      pop\n      jump\t// out\n\n    auxdata: 0xa2646970667358221220fb9606c56d6a578b388aa030fb9f4ee0d3f8bff1fb3581c2133ae899317c283a64736f6c63430008120033\n}\n",
				"bytecode": {
					"linkReferences": {},
					"object": "608060405234801561001057600080fd5b5061033c806100206000396000f3fe608060405234801561001057600080fd5b50600436106100365760003560e01c8063ab9843461461003b578063fd7b1bf51461006b575b600080fd5b61005560048036038101906100509190610188565b61009b565b60405161006291906101d7565b60405180910390f35b61008560048036038101906100809190610188565b6100f4565b60405161009291906101d7565b60405180910390f35b6000818310156100e0576040517f08c379a00000000000000000000000000000000000000000000000000000000081526004016100d79061024f565b60405180910390fd5b81836100ec919061029e565b905092915050565b600081831015610139576040517f08c379a00000000000000000000000000000000000000000000000000000000081526004016101309061024f565b60405180910390fd5b818361014591906102d2565b905092915050565b600080fd5b6000819050919050565b61016581610152565b811461017057600080fd5b50565b6000813590506101828161015c565b92915050565b6000806040838503121561019f5761019e61014d565b5b60006101ad85828601610173565b92505060206101be85828601610173565b9150509250929050565b6101d181610152565b82525050565b60006020820190506101ec60008301846101c8565b92915050565b600082825260208201905092915050565b7f496e76616c696420696e70757400000000000000000000000000000000000000600082015250565b6000610239600d836101f2565b915061024482610203565b602082019050919050565b600060208201905081810360008301526102688161022c565b9050919050565b7f4e487b7100000000000000000000000000000000000000000000000000000000600052601160045260246000fd5b60006102a982610152565b91506102b483610152565b92508282019050808211156102cc576102cb61026f565b5b92915050565b60006102dd82610152565b91506102e883610152565b9250828203905081811115610300576102ff61026f565b5b9291505056fea2646970667358221220fb9606c56d6a578b388aa030fb9f4ee0d3f8bff1fb3581c2133ae899317c283a64736f6c63430008120033",
					"opcodes": "PUSH1 0x80 PUSH1 0x40 MSTORE CALLVALUE DUP1 ISZERO PUSH2 0x10 JUMPI PUSH1 0x0 DUP1 REVERT JUMPDEST POP PUSH2 0x33C DUP1 PUSH2 0x20 PUSH1 0x0 CODECOPY PUSH1 0x0 RETURN INVALID PUSH1 0x80 PUSH1 0x40 MSTORE CALLVALUE DUP1 ISZERO PUSH2 0x10 JUMPI PUSH1 0x0 DUP1 REVERT JUMPDEST POP PUSH1 0x4 CALLDATASIZE LT PUSH2 0x36 JUMPI PUSH1 0x0 CALLDATALOAD PUSH1 0xE0 SHR DUP1 PUSH4 0xAB984346 EQ PUSH2 0x3B JUMPI DUP1 PUSH4 0xFD7B1BF5 EQ PUSH2 0x6B JUMPI JUMPDEST PUSH1 0x0 DUP1 REVERT JUMPDEST PUSH2 0x55 PUSH1 0x4 DUP1 CALLDATASIZE SUB DUP2 ADD SWAP1 PUSH2 0x50 SWAP2 SWAP1 PUSH2 0x188 JUMP JUMPDEST PUSH2 0x9B JUMP JUMPDEST PUSH1 0x40 MLOAD PUSH2 0x62 SWAP2 SWAP1 PUSH2 0x1D7 JUMP JUMPDEST PUSH1 0x40 MLOAD DUP1 SWAP2 SUB SWAP1 RETURN JUMPDEST PUSH2 0x85 PUSH1 0x4 DUP1 CALLDATASIZE SUB DUP2 ADD SWAP1 PUSH2 0x80 SWAP2 SWAP1 PUSH2 0x188 JUMP JUMPDEST PUSH2 0xF4 JUMP JUMPDEST PUSH1 0x40 MLOAD PUSH2 0x92 SWAP2 SWAP1 PUSH2 0x1D7 JUMP JUMPDEST PUSH1 0x40 MLOAD DUP1 SWAP2 SUB SWAP1 RETURN JUMPDEST PUSH1 0x0 DUP2 DUP4 LT ISZERO PUSH2 0xE0 JUMPI PUSH1 0x40 MLOAD PUSH32 0x8C379A000000000000000000000000000000000000000000000000000000000 DUP2 MSTORE PUSH1 0x4 ADD PUSH2 0xD7 SWAP1 PUSH2 0x24F JUMP JUMPDEST PUSH1 0x40 MLOAD DUP1 SWAP2 SUB SWAP1 REVERT JUMPDEST DUP2 DUP4 PUSH2 0xEC SWAP2 SWAP1 PUSH2 0x29E JUMP JUMPDEST SWAP1 POP SWAP3 SWAP2 POP POP JUMP JUMPDEST PUSH1 0x0 DUP2 DUP4 LT ISZERO PUSH2 0x139 JUMPI PUSH1 0x40 MLOAD PUSH32 0x8C379A000000000000000000000000000000000000000000000000000000000 DUP2 MSTORE PUSH1 0x4 ADD PUSH2 0x130 SWAP1 PUSH2 0x24F JUMP JUMPDEST PUSH1 0x40 MLOAD DUP1 SWAP2 SUB SWAP1 REVERT JUMPDEST DUP2 DUP4 PUSH2 0x145 SWAP2 SWAP1 PUSH2 0x2D2 JUMP JUMPDEST SWAP1 POP SWAP3 SWAP2 POP POP JUMP JUMPDEST PUSH1 0x0 DUP1 REVERT JUMPDEST PUSH1 0x0 DUP2 SWAP1 POP SWAP2 SWAP1 POP JUMP JUMPDEST PUSH2 0x165 DUP2 PUSH2 0x152 JUMP JUMPDEST DUP2 EQ PUSH2 0x170 JUMPI PUSH1 0x0 DUP1 REVERT JUMPDEST POP JUMP JUMPDEST PUSH1 0x0 DUP2 CALLDATALOAD SWAP1 POP PUSH2 0x182 DUP2 PUSH2 0x15C JUMP JUMPDEST SWAP3 SWAP2 POP POP JUMP JUMPDEST PUSH1 0x0 DUP1 PUSH1 0x40 DUP4 DUP6 SUB SLT ISZERO PUSH2 0x19F JUMPI PUSH2 0x19E PUSH2 0x14D JUMP JUMPDEST JUMPDEST PUSH1 0x0 PUSH2 0x1AD DUP6 DUP3 DUP7 ADD PUSH2 0x173 JUMP JUMPDEST SWAP3 POP POP PUSH1 0x20 PUSH2 0x1BE DUP6 DUP3 DUP7 ADD PUSH2 0x173 JUMP JUMPDEST SWAP2 POP POP SWAP3 POP SWAP3 SWAP1 POP JUMP JUMPDEST PUSH2 0x1D1 DUP2 PUSH2 0x152 JUMP JUMPDEST DUP3 MSTORE POP POP JUMP JUMPDEST PUSH1 0x0 PUSH1 0x20 DUP3 ADD SWAP1 POP PUSH2 0x1EC PUSH1 0x0 DUP4 ADD DUP5 PUSH2 0x1C8 JUMP JUMPDEST SWAP3 SWAP2 POP POP JUMP JUMPDEST PUSH1 0x0 DUP3 DUP3 MSTORE PUSH1 0x20 DUP3 ADD SWAP1 POP SWAP3 SWAP2 POP POP JUMP JUMPDEST PUSH32 0x496E76616C696420696E70757400000000000000000000000000000000000000 PUSH1 0x0 DUP3 ADD MSTORE POP JUMP JUMPDEST PUSH1 0x0 PUSH2 0x239 PUSH1 0xD DUP4 PUSH2 0x1F2 JUMP JUMPDEST SWAP2 POP PUSH2 0x244 DUP3 PUSH2 0x203 JUMP JUMPDEST PUSH1 0x20 DUP3 ADD SWAP1 POP SWAP2 SWAP1 POP JUMP JUMPDEST PUSH1 0x0 PUSH1 0x20 DUP3 ADD SWAP1 POP DUP2 DUP2 SUB PUSH1 0x0 DUP4 ADD MSTORE PUSH2 0x268 DUP2 PUSH2 0x22C JUMP JUMPDEST SWAP1 POP SWAP2 SWAP1 POP JUMP JUMPDEST PUSH32 0x4E487B7100000000000000000000000000000000000000000000000000000000 PUSH1 0x0 MSTORE PUSH1 0x11 PUSH1 0x4 MSTORE PUSH1 0x24 PUSH1 0x0 REVERT JUMPDEST PUSH1 0x0 PUSH2 0x2A9 DUP3 PUSH2 0x152 JUMP JUMPDEST SWAP2 POP PUSH2 0x2B4 DUP4 PUSH2 0x152 JUMP JUMPDEST SWAP3 POP DUP3 DUP3 ADD SWAP1 POP DUP1 DUP3 GT ISZERO PUSH2 0x2CC JUMPI PUSH2 0x2CB PUSH2 0x26F JUMP JUMPDEST JUMPDEST SWAP3 SWAP2 POP POP JUMP JUMPDEST PUSH1 0x0 PUSH2 0x2DD DUP3 PUSH2 0x152 JUMP JUMPDEST SWAP2 POP PUSH2 0x2E8 DUP4 PUSH2 0x152 JUMP JUMPDEST SWAP3 POP DUP3 DUP3 SUB SWAP1 POP DUP2 DUP2 GT ISZERO PUSH2 0x300 JUMPI PUSH2 0x2FF PUSH2 0x26F JUMP JUMPDEST JUMPDEST SWAP3 SWAP2 POP POP JUMP INVALID LOG2 PUSH5 0x6970667358 0x22 SLT KECCAK256 0xFB SWAP7 MOD 0xC5 PUSH14 0x6A578B388AA030FB9F4EE0D3F8BF CALL 0xFB CALLDATALOAD DUP2 0xC2 SGT GASPRICE 0xE8 SWAP10 BALANCE PUSH29 0x283A64736F6C6343000812003300000000000000000000000000000000 "
				},
				"gasEstimates": {
					"creation": {
						"codeDepositCost": "165600",
						"executionCost": "208",
						"totalCost": "165808"
					},
					"external": {
						"calculateAgeAfterYears(uint256,uint256)": "infinite",
						"calculateAgeBeforeYears(uint256,uint256)": "infinite"
					}
				},
				"methodIdentifiers": {
					"calculateAgeAfterYears(uint256,uint256)": "ab984346",
					"calculateAgeBeforeYears(uint256,uint256)": "fd7b1bf5"
				}
			},
			"storageLayout": {
				"storage": [],
				"types": null
			},
			"userdoc": {
				"kind": "user",
				"methods": {},
				"version": 1
			}
		}
	}
}